:100000000C945D000C94830A0C945C0A0C9485009B
:100010000C9485000C9485000C940E050C948500BE
:100020000C9485000C9485000C9485000C9485003C
:100030000C9485000C9485000C9485000C9485002C
:100040000C94120A0C9485000C9485000C94850085
:100050000C9485000C9485000C9485000C9485000C
:100060000C9485000C94850000000008000201003B
:100070000003040700000000000000000000000072
:10008000250028002B0000000000240027002A0083
:10009000040404040404040402020202020203032E
:1000A0000303030301020408102040800102040836
:1000B0001020010204081020AA0A11241FBECFEF4D
:1000C000D8E0DEBFCDBF11E0A0E0B1E0ECE2F8E1A6
:1000D00002C005900D92AA33B107D9F721E0AAE337
:1000E000B1E001C01D92AA3EB207E1F710E0CDE5F4
:1000F000D0E004C02197FE010E94FF0BCC35D10750
:10010000C9F70E94BA0A0C94140C0C940000809158
:1001100050018460809350018091510180788093D8
:100120005101E0914101F0914201309709F00994A9
:100130000895E0E5F1E08081877F8F7E80831092D3
:100140004C0110924D0110924E0110924F010E94ED
:10015000CE09609355017093560180935701909397
:10016000580144E050E060E070E08DED91E00C94C7
:10017000C50BFC01838187708860838384818F71C4
:10018000806284836783CF0108950F931F93CF9379
:10019000DF93EC016115710561F0FB010190002016
:1001A000E9F73197E61BF70BE931F10518F0E9E1C2
:1001B00001C0E0E00E2F10E0C80123E0880F991F76
:1001C0002A95E1F79B819770892B8B838C818F71A6
:1001D0008C83EE2329F0A801CE0107960E94050C1E
:1001E000FE01E00FF11F1782CE01DF91CF911F9129
:1001F0000F910895FC0124812295269527702130C6
:1002000011F487810895211104C007960E94630BA1
:10021000089580E00895CF93DF93FC01108211824E
:100220001282148215821682DC0117968AE1ED0192
:1002300019928A95E9F782E08383DF91CF9108953F
:10024000E0914601F0914701309721F00280F3815F
:10025000E02D09958091500184FD0C94E3050895EB
:100260000F931F930E94CE090091480110914901FC
:1002700020914A0130914B01601B710B820B930B53
:100280001F910F9108959C01809146019091470123
:100290008217930751F0909150019F7190935001F4
:1002A000309347012093460105C080915001805E44
:1002B00080935001E0914601F0914701309721F081
:1002C0000190F081E02D09950E94CE0960934801CC
:1002D0007093490180934A0190934B0108950F93C5
:1002E0001F930E943001209151012077203729F07F
:1002F00000E117E220E030E004C000E61AEE20E062
:1003000030E0061717072807390730F489E191E034
:100310001F910F910C9443011F910F9108958091AB
:1003200051018F708B3020F084E191E00C944301F7
:10033000089591E59CBD91E09DBD2A98E3E2F0E02F
:100340003197F1F78EBD00000DB407FEFDCF8EB5DD
:10035000FB019FEF4150C8F0222361F09EBD0000D9
:100360000DB407FEFDCF8EB56115710599F380833D
:100370003196F0CFDF01119680818EBD00000DB463
:1003800007FEFDCF8EB5FD01E5CF2A9AE3E2F0E04E
:100390003197F1F70895CF93DF931F92CDB7DEB772
:1003A000698320E041E0BE016F5F7F4F0E949901A9
:1003B0000F90DF91CF9108956FE080E20E94CB0112
:1003C000609118016F3F19F08AE20E94CB01299ACF
:1003D000089521E041E060E070E00C94990120E094
:1003E00040E060E070E00C9499010F931F930E942D
:1003F000CE0900913B0110913C0120913D013091CB
:100400003E01DC01CB01801B910BA20BB30B8B34A3
:100410009105A105B10508F43CC00E94CE09609386
:100420003B0170933C0180933D0190933E0180918C
:100430004301882319F08150809343018091430147
:10044000837061E009F060E080E00E9448098091DB
:100450004001882319F08150809340018091400130
:10046000837061E009F060E081E00E9448098091BA
:100470003F01882319F0815080933F0180913F0113
:10048000837061E009F060E08DE01F910F910C94A2
:1004900048091F910F91089590913F01911104C057
:1004A000880F880F80933F010C94F501EF92FF9223
:1004B0001F93CF93DF937C01FC01C2818091500197
:1004C00080FF04C0CF3F09F069C014C0C11103C050
:1004D000C091DE010FC0CF3F69F08C2F90E00396F2
:1004E0000E94D50B8F3F29F48091DE01F7019081A6
:1004F0009813C82F8091DD01F7018083438142FD6D
:1005000006C0469546954695D7E0D40F01C0D0E287
:1005100080914001811103C084E0809340010E94DA
:10052000F5011091E0011170299883E092E00197A4
:10053000F1F76EE080E20E94CB018BE891E0019739
:10054000F1F76C2F8AE20E94CB016C2F80E30E94AE
:10055000CB0181EE0E94EF01CF3F21F0111102C0CB
:1005600080EA01C080EB4D2FD13208F040E220E05C
:10057000B7010E949901299A83E290E00197F1F76F
:100580002998E12CF12C8FEF0E94EF01D82F807376
:1005900039F4F1E0EF1AF108B1F702C010E02BC016
:1005A00060E387E20E94CB01D4FF03C081EE0E948A
:1005B000EF010E94DC01D5FD02C0117001C011E005
:1005C00081E0CF3F09F080E0182B8091DE01C81355
:1005D00012C011110BC082E00E944C0280915101A7
:1005E00091E0980F9F70807F892B03C0809151010B
:1005F000807F80935101812FDF91CF911F91FF90D8
:10060000EF9008952091500122FD0C94560280E055
:100610000895CF932FE043E06FEF80E00E9404093C
:100620006FE271E00E94C500ECEBF1E0838187701E
:100630008061838384818F71806C848381E0878370
:100640001086CF010E9402038FE00E94DA0962E166
:100650008FEF0E943209C091DE0126E043E06FEF88
:1006600080E00E9404096C2F0E94B9000E940203DE
:1006700086E00E94DA09CF910C946F05CF938091A8
:10068000450181FD1FC00E940903809145018160E1
:1006900080934501C4E02AE143E06FEF80E00E94CF
:1006A000040962E00E94B9000E9402038BE10E94EB
:1006B000DA09811102C0C15071F780914501826051
:1006C00080934501CF910895CF93C82F8FEF8C0F62
:1006D0008E3FA8F4C093DD01C093180163E082E26D
:1006E0000E94CB0161E081E20E94CB010E94DC010B
:1006F0006C2F80E090E00E94ED0B81E007C08BE062
:100700000E944C028FEF8093DD0180E0CF9108952D
:1007100080915101982F9077903759F0982F9295AA
:100720009F709F5F97709295907F8F78892B8093B1
:100730005101809150018B7F8F7E8093500184E026
:100740000E944C0229986CE080E20C94CB018091CD
:1007500052018F3FA1F00E94CE0960934C0170932B
:100760004D0180934E0190934F01809152019091E1
:10077000DF0189138093DF0180E191E016C00E94C0
:100780003001613D77408105910588F080915001ED
:10079000803618F48CE091E008C0877F8093500188
:1007A00087E00E944C0284E191E00C94430108959B
:1007B0008FEF80935201E0E5F1E0808188608083D3
:1007C00028E143E06FEF80E00E94040961E00E94AD
:1007D000B9000C9456028091DD018F3F19F08CE036
:1007E00091E013C00E943001613D77408105910581
:1007F00070F080915001803618F488E091E005C0D7
:1008000086E00E944C028EE191E00C944301089531
:100810008091DD018F3FB1F40E94CE096F3F19F046
:1008200060931D0102C010921D0123E043E060911E
:100830001D0180E00E9404096FE271E00E94C50082
:100840000C94560208950E943001613D7740810565
:10085000910520F48091500181FF08958091DE017F
:100860008F3F41F0809150018E7F8093500188E04E
:1008700091E00CC080915001803618F484E191E041
:1008800005C085E00E944C028EE191E00C9443018A
:10089000E0E5F1E08081897F81608083EDEDF1E02A
:1008A0008FEF8283818327E043E06FEF0E9404098A
:1008B0006FE271E00E94C5000C945602CF93219A1A
:1008C000229A29982A9ACFB7F89480913A018111F7
:1008D00024C0EAE9F0E08491EEEAF0E09491E82F98
:1008E000F0E0EE0FFF1FEA57FF4FA591B491EC9196
:1008F000E92321F461E08AE00E9448098AE00E942D
:1009000013098CB580618CBD8CB580648CBD8DE085
:100910000E9413098BE00E94130980913A018F5FB6
:1009200080933A01CFBF6EE080E20E94CB0165E088
:1009300070E080E090E00E94940963E083E20E940E
:10094000CB016FE584E20E94CB016CE485E20E945A
:10095000CB0165E286E20E94CB0163E780E50E945D
:10096000CB0164E08DE30E94CB0186E00E94E901A7
:10097000853209F047C085E00E94E9018C3409F016
:1009800041C062E082E20E94CB0160E081E20E940D
:10099000CB0163E08CE30E94CB018FEF80930301D6
:1009A00020E045E063E071E08BE20E94990120E0E5
:1009B00045E063E071E08AE20E94990120E045E0B1
:1009C00063E071E080E30E94990182EE0E94EF01F2
:1009D00081EE0E94EF0160E787E20E94CB018091E7
:1009E00050018061809350018091E0018E7F80935F
:1009F000E0018091DD018F3F49F00E946403811185
:100A000005C007C084E00E944C0203C084E191E06D
:100A100002C08EE191E0CF910C9443011F920F929E
:100A20000FB60F9211240F900FBE0F901F901895C4
:100A300008950895CF93DF93FC012581223009F0BA
:100A40004BC0EC010E94FA00811104C040E050E06C
:100A5000BA0104C040E050E060E87FE32E8130E05E
:100A60002150310981E2829FF001839FF00D112412
:100A7000E75AFE4F8381877088628383848147832E
:100A800050876187728791E093879091DD01918310
:100A90008071816E84838091450180FF03C0CF0106
:100AA0000E940203CE010E94FA0061E0811101C0A0
:100AB00060E08E818D5F0E944809CE010E94FA009D
:100AC00061E0811101C060E08E8190E083569E4F0D
:100AD000DF91CF910C94ED0BDF91CF9108952BE036
:100AE00043E06FEF80E00E94040966E271E00E943B
:100AF000C5000E9402032CE043E06FEF80E00E94FB
:100B000004096CE271E00E94C5000E94020363E0E8
:100B100081E00E94320963E082E00C943209BF92C6
:100B2000CF92DF92EF92FF920F931F93CF93DF93B9
:100B3000CDB7DEB7A1970FB6F894DEBF0FBECDBF1D
:100B400099E5E92E91E0F92E0EE911E022E0C22E9E
:100B500031E2B32ECE0101960E940B0183E6800F95
:100B60008F83CE82FE013196D7018B2D01900D929D
:100B70008A95E1F786E6D82ED00E8D2D0E941309B6
:100B8000C8010E94D50B61E0811101C060E08D2D8C
:100B90000E94480981E2E80EF11C0F39114019F05A
:100BA0000FE911E0D7CFA1960FB6F894DEBF0FBEC4
:100BB000CDBFDF91CF911F910F91FF90EF90DF900C
:100BC000CF90BF9008954F925F926F927F928F92D5
:100BD0009F92AF92BF92CF92DF92EF92FF920F93CC
:100BE0001F93CF93DF930E94CE090091550110917E
:100BF00056012091570130915801DC01CB01801B37
:100C0000910BA20BB30B813A9B4BAD40B105A0F009
:100C10000E94CE096093550170935601809357014D
:100C20009093580186E00E94E9018532D9F485E06D
:100C30000E94E9018C34B1F486E0B82E94E0A92E2C
:100C4000E12CFF24FA9430E0C32E30E0D32E41E2B1
:100C5000942E87E10E94E90180FD9FC2BA94B110F1
:100C600006C09BC28EE191E00E944301E5CF8091D6
:100C70004301811102C0A09243010E94F50121E0CD
:100C800041E060E070E080E60E949901082F813227
:100C900020F082EE0E94EF0100E021E0402F6BE99E
:100CA00071E081E60E94990160E487E20E94CB0135
:100CB00090919E01192F1695169516951A3108F0E8
:100CC00019E192FD03C087E0810F01C080E26090CE
:100CD0009F01C091A001D0919C0180909B017090D8
:100CE0009D01081711F089E004C09370923021F043
:100CF0008AE00E944C02ADCF8091DE01881651F04F
:100D00008091DD01D81731F08D2F90E0682D03968A
:100D10000E94ED0B062D0770809151018068809331
:100D200051018091DD0178123FC020919E01822FF8
:100D30008695869586958A3108F089E138E0839F0B
:100D4000C00111242770822B80939E01E12FF0E0D7
:100D5000E556FE4F178280919F0183FF17C0EBE994
:100D6000F1E0ACEBB1E0892D01900D928A95E1F7AD
:100D70008091C001877F80618093C0017092BD0126
:100D8000D093BE018CEB91E00E94020380919F0101
:100D900084FD27C0033029F59091A00121EF290F90
:100DA000233008F0BDC055CF2FEF72129FC0033023
:100DB000E9F08091DE0188124CCF8091DD01D817D7
:100DC00009F4E7C18091500182FFE3C18BE991E012
:100DD0000E945602033009F43CCF8091DE01881254
:100DE00038CF8BE991E00E941A0533CF80915001F2
:100DF00082FF5DC0C73009F05AC08091DE01D8176C
:100E000009F427CF0E94CE0900914C0110914D01A9
:100E100020914E0130914F01DC01CB01801B910BE1
:100E2000A20BB30B80319742A105B10518F1809157
:100E3000500183FD0ECF9091DD01911170C1109290
:100E4000520180915001877F80935001C0915201DF
:100E5000CF3F09F4FECE0E94CE0960934C017093FF
:100E60004D0180934E0190934F018091DF01C81393
:100E7000C093DF010E94CE0960934C0170934D0135
:100E800080934E0190934F010E94CE097370882782
:100E900099270E949409C091DF0128E043E06FEF99
:100EA0008D2F0E9404096C2F0E94B90036C0C830F3
:100EB00009F4CFCEC43109F07CCF8091DE018812D5
:100EC00078CF0E94CE097370882799270E949409D1
:100ED000C091DE0125E143E06FEF8D2F0E940409F0
:100EE0006C2F0E94B9000E94560263CF809150017E
:100EF00082FFAFCE033079F4C851C23060F48BE981
:100F000091E00E94FA008E3F31F061E0680F8BE9BA
:100F100091E00E94B9008BE991E00E94560299CEBF
:100F2000C43081F48091A10190911D01891719F0BD
:100F30008F3F09F08ECE8BE991E00E94FA000E946B
:100F4000640387CEC830D9F4C0915001C0FF81CE70
:100F50008BE991E00E94FA008F3F09F47ACE8F5F0F
:100F60008F3F09F476CE9091DF01891708F071CE9A
:100F7000C1FD6FCE8093DF01D093DE016ACEC83110
:100F800041F429E143E06FEF8D2F0E94040961E0F5
:100F90008BCFC93171F48091500183FF5ACE877F86
:100FA000809350018BE991E00E94FA0080935201F6
:100FB00050CE20919C01211196C09D3059F498E0AB
:100FC00088E10FB6F894A895809360000FBE9093C7
:100FD0006000FFCF9B3179F48BE991E00E94FA0029
:100FE00091E0811101C090E08091450190FB80F972
:100FF000809345012ECE963099F49091A20181E024
:10100000992319F09D3409F080E08093440141E078
:1010100050E063E071E084E491E00E94DD0B19CEC2
:10102000933119F40E94090314CE9231C9F40E943D
:1010300030012B013C0126E143E06FEF80E00E948C
:101040000409FC0184818F71806A848383818770A5
:10105000806283834782508661867286CF013DC05D
:101060009130F9F4C114D10409F4F3CD8295869539
:101070008770853049F46091A2017091A30180913D
:10108000A4019091A5010AC0811105C082EA91E0F6
:101090000E94810B03C060E070E0CB010E94000061
:1010A000D8CD9A30E9F48091A201833409F0D1CDF2
:1010B000C3E0D0E06FEFCE010E94ED0B2196C3306C
:1010C00081E0D807B9F72AE043E06FEF80E00E94A3
:1010D000040960E371E00E94C5000E940203B9CDDB
:1010E0009C3121F4B6CD9A3109F4B3CDCE3109F457
:1010F000B0CDCD3109F075CE2FE143E06FEF80E048
:101100000E940409FC0184818F718064848383813F
:10111000877080618383F086E782CF01FECE88608E
:10112000809350017092520128E143E06FEF80E01C
:101130000E94040961E00E94B9000E9456020E94C8
:10114000CE092B013C011092A001C0E00E94CE0903
:10115000DC01CB0184199509A609B709803D9740A8
:10116000A105B10508F06DCEC1116BCE8091500183
:1011700084FD0E94E305A8950E94F50180919F01DE
:101180008770833019F7C1E08091A0018931E9F6B9
:10119000DDCF033009F025CE5CCDDF91CF911F91DB
:1011A0000F91FF90EF90DF90CF90BF90AF909F9006
:1011B0008F907F906F905F904F9008953FB7F89415
:1011C0008091E6019091E701A091E801B091E901D9
:1011D00026B5A89B05C02F3F19F00196A11DB11D92
:1011E0003FBFBA2FA92F982F8827820F911DA11DCD
:1011F000B11DBC01CD0142E0660F771F881F991F0A
:101200004A95D1F708950895ECEBF1E09091DD0156
:10121000918382836683258347708481807E482BF7
:101220004483CF01089590E0FC01EC55FF4F2491D9
:10123000FC01E057FF4F8491882399F090E0880FDC
:10124000991FFC01EA57FF4FA591B491FC01E458A6
:10125000FF4F859194918FB7F894EC91E22BEC932A
:101260008FBF0895CF93DF93262F8F3F19F0CFE2E2
:10127000D1E002C0C3E3D1E040E0682F80E00E94EB
:101280000409BE010E94C500DF91CF910C940203B6
:1012900090E0FC01E859FF4F3491FC01EC55FF4F01
:1012A0002491FC01E057FF4FE491EE2309F43BC089
:1012B000332339F1333091F038F43130A9F0323042
:1012C00001F584B58F7D12C0373091F03830A1F030
:1012D0003430B9F4809180008F7D03C0809180000C
:1012E0008F77809380000DC084B58F7784BD09C04F
:1012F0008091B0008F7703C08091B0008F7D809384
:10130000B000F0E0EE0FFF1FE458FF4FA591B4913D
:101310008FB7F894EC91611103C020952E2301C082
:101320002E2B2C938FBF08958F929F92AF92BF92D6
:10133000CF92DF92EF92FF926B017C010E94DE0858
:101340004B015C01C114D104E104F104F1F00E94ED
:10135000DE08DC01CB0188199909AA09BB09883E7E
:101360009340A105B10570F321E0C21AD108E1084C
:10137000F10888EE880E83E0981EA11CB11CC114F0
:10138000D104E104F10419F7DDCFFF90EF90DF9075
:10139000CF90BF90AF909F908F9008952FB7F89403
:1013A0006091E2017091E3018091E4019091E50187
:1013B0002FBF0895CF92DF92EF92FF92CF93DF93EA
:1013C000D82F0E94CE096B017C0181E0D11180E011
:1013D0008093A001C0E00E94CE09AB01BC014C1972
:1013E0005D096E097F09403D57406105710590F424
:1013F000C11110C0A8950E94F5010E942001909192
:101400009F019770933039F7C1E08091A0018D134F
:10141000E1CFE1CF8C2FDF91CF91FF90EF90DF9064
:10142000CF9008951F920F920FB60F9211242F9311
:101430003F938F939F93AF93BF938091E2019091DD
:10144000E301A091E401B091E5013091E10123E0D5
:10145000230F2D3720F40196A11DB11D05C026E8EC
:10146000230F0296A11DB11D2093E1018093E2019B
:101470009093E301A093E401B093E5018091E6012C
:101480009091E701A091E801B091E9010196A11DB9
:10149000B11D8093E6019093E701A093E801B0931A
:1014A000E901BF91AF919F918F913F912F910F9043
:1014B0000FBE0F901F9018951F920F920FB60F92AC
:1014C00011242F933F934F935F936F937F938F9349
:1014D0009F93AF93BF93EF93FF93E0912401F0911B
:1014E00025010995FF91EF91BF91AF919F918F9148
:1014F0007F916F915F914F913F912F910F900FBE10
:101500000F901F9018951F920F920FB60F921124F3
:101510002F933F934F935F936F937F938F939F93FB
:10152000AF93BF93EF93FF93E0912201F0912301DA
:101530000995FF91EF91BF91AF919F918F917F910D
:101540006F915F914F913F912F910F900FBE0F9030
:101550001F9018958BE991E00E940B018CEB91E0B4
:101560000E940B0189E591E00E940B018AE791E05E
:101570000C940B01789484B5826084BD84B581603D
:1015800084BD85B5826085BD85B5816085BD80914E
:101590006E00816080936E001092810080918100C6
:1015A00082608093810080918100816080938100BE
:1015B000809180008160809380008091B100846080
:1015C0008093B1008091B00081608093B0008091E1
:1015D0007A00846080937A0080917A0082608093A0
:1015E0007A0080917A00816080937A0080917A00FD
:1015F000806880937A001092C100A89580E090E006
:10160000892B11F00E940000809145018D7F80930D
:1016100045010E948F0510924301109240011092E3
:101620003F01509A519A259A0E94CE09DC01CB01C4
:101630008B549109A109B10980933B0190933C011E
:10164000A0933D01B0933E010E94F50141E050E0BE
:1016500063E071E084E491E00E94C50B6FEF81E0EC
:1016600090E00E94ED0B809151018F7880935101A1
:10167000109247011092460189E191E00E944301D6
:101680008EE393E090934201809341010E94CE0942
:101690000E94CE090E942001C0915001C2FBCC27BC
:1016A000C0F9A8950E94F501CC2391F3A895C0E05C
:1016B000D0E0A8950E94F5010E9420012097C9F36F
:1016C0000E940000F6CFFC0188279927E894219119
:1016D0002032E9F3293010F02E30C8F32B3241F0DC
:1016E0002D3239F4689404C00E94BD0B820F911D05
:1016F000219120532A30C0F31EF4909581959F4F7D
:1017000008951F93FC0199278827BC01E894119143
:101710001032E9F3193010F01E30C8F31B3251F0CB
:101720001D3249F4689406C00E94A80B610F711D18
:10173000811D911D119110531A30B0F33EF4909514
:101740008095709561957F4F8F4F9F4F1F910895A2
:10175000592F482F372F262F660F771F881F991F65
:10176000660F771F881F991F620F731F841F951FB5
:10177000660F771F881F991F08957AE0979F902D15
:10178000879F802D910D11240895DC01CB01FC0170
:10179000F999FECF06C0F2BDE1BDF89A319600B4CA
:1017A0000D9241505040B8F70895F999FECF92BD7F
:1017B00081BDF89A992780B50895DC01A40FB51F63
:1017C0004150504048F0CB01840F951F2E910E944C
:1017D000EE0B41505040D0F70895262FF999FECFD7
:1017E00092BD81BDF89A019700B4021639F01FBA74
:1017F00020BD0FB6F894FA9AF99A0FBE0895EE0F2D
:10180000FF1F0590F491E02D0994FB01DC0141508C
:10181000504048F001900D920020C9F701C01D9280
:0C18200041505040E0F70895F894FFCFCD
:10182C00FFFFFF00FCE1A8A80804EB03D803A70303
:10183C0087008F0148042304FF99005E04FF88038E
:10184C006F010309030952656C617900312E300078
:0A185C004F4B00322E332E300000F7
:00000001FF
